:020000040800F2
:10000000D84605208102000865230008C91F0008A2
:10001000612300085D100008BD2B000800000000EF
:10002000000000000000000000000000C101000806
:10003000BD130008000000001D020008A7290008E9
:100040009B0200089B0200089B0200089B0200081C
:100050009B0200089B0200089B0200089B0200080C
:100060009B0200089B0200089B0200089B020008FC
:100070009B0200089B0200089B0200089B020008EC
:100080009B0200089B0200089B0200089B020008DC
:100090009B0200089B0200089B0200089B020008CC
:1000A0009B020008392B00089B0200089B020008F5
:1000B0009B0200089B0200089B0200089B020008AC
:1000C0009B0200089B0200089B0200089B0200089C
:1000D0009B0200089B0200089B0200089B0200088C
:1000E0009B0200089B0200089B0200089B0200087C
:1000F0009B0200089B0200089B0200089B0200086C
:100100009B020008912300089B0200089B02000844
:100110009B0200089B0200089B0200089B0200084B
:100120009B0200089B0200089B0200089B0200083B
:100130009B020008C11300089B0200089B020008F4
:100140009B0200089B0200089B0200089B0200081B
:100150009B020008F51200089B0200089B020008A1
:100160009B0200089B0200089B0200089B020008FB
:100170009B0200089B0200089B0200080000000090
:100180009B0200089B0200089B0200089B020008DB
:100190009B0200089B0200089B0200080000000070
:1001A0009B0200089B0200089B020008DFF80CD0AD
:1001B00000F07CFB0048004731A40008D846052029
:1001C0002C4B19680868B0E8F04F80F30988BFF33A
:1001D0006F8F4FF0000080F311887047000000001F
:1001E00008480068006880F308884FF0000080F33A
:1001F000148862B661B6BFF34F8FBFF36F8F00DF15
:1002000000BF00BF08ED00E0DFF80C00016841F41A
:1002100070010160704700BF88ED00E0EFF30980D6
:10022000BFF36F8F134B1A681EF0100F08BF20ED3D
:10023000108A20E9F04F106009B44FF0BF0080F33E
:100240001188BFF34F8FBFF36F8F12F017FC4FF081
:10025000000080F3118809BC19680868B0E8F04F05
:100260001EF0100F08BFB0EC108A80F30988BFF3AE
:100270006F8F704784000020EFF305807047000007
:100280000648804706480047FEE7FEE7FEE7FEE730
:10029000FEE7FEE7FEE7FEE7FEE7FEE7BD29000812
:1002A000AD0100082DE9F05F0546002092469B460F
:1002B00088460646814640241BE02846414647467C
:1002C000224600F008F953465A46C01A914110D30D
:1002D00011461846224600F0EFF82D1A67EB010888
:1002E0004F4622460120002100F0E6F817EB0009F6
:1002F0004E41201EA4F10104DFDC484631462A4667
:100300004346BDE8F09F000000487047A03A01084E
:1003100010B5431A934209D28318881803E010F8E5
:10032000011D03F8011D521EF9D210BD40EA010360
:100330009B0703D009E008C9121F08C0042AFAD29B
:1003400003E011F8013B00F8013B521EF9D210BD49
:10035000D2B201E000F8012B491EFBD27047002207
:10036000F6E710B513460A4604461946FFF7F0FFB4
:10037000204610BD30B504460020034600E05B1C5B
:10038000934203D2E05CCD5C401BF8D030BD70B529
:10039000064602F0E9FC046805460A2200213046C0
:1003A00000F0A9F82C6070BD2DE9FE4F81EA03042E
:1003B00004F0004421F0004100944FF0000B23F0C2
:1003C000004350EA01045ED052EA03045BD0C3F359
:1003D0000A54C1F30A552C44A4F2F3340194A0FB4F
:1003E0000254C1F3130141F48011C3F3130343F426
:1003F000801301FB024400FB034E840A970A44EA7F
:10040000815447EA8357A4FB076802958D0A05FBD0
:1004100007854FEA932C04FB0C542705029D4FEAF5
:10042000065847EA1637B5EB08056EEB070C870E42
:10043000920E47EA811742EA8312A7FB0201B6EB4C
:100440000B0164EB00042B0D43EA0C335E1844EB04
:100450001C50DA465146E7FB0201C5F313044FEA8C
:100460000B3343EA14534FEA0432019C43EA060378
:10047000A4F10C040294009CCDE900B400F082F8D1
:1004800003B0BDE8F08F00200146F9E730B50B4618
:10049000014600202022012409E021FA02F59D42B4
:1004A00005D303FA02F5491B04FA02F52844151E88
:1004B000A2F10102F1DC30BD202A04DB203A00FA6F
:1004C00002F1002070479140C2F1200320FA03F3AB
:1004D000194390407047202A04DB203A21FA02F0A9
:1004E0000021704721FA02F3D040C2F1200291406E
:1004F0000843194670472DE9F04791460F4680465C
:100500000446002614F8015B2DB1FFF7FDFE0068DC
:10051000405DC007F6D12B2D02D02D2D18D0641EC2
:100520004A463946204600F0E5F927B13968A1422C
:1005300001D1C7F8008071054FF002040BD540428D
:10054000002803DD02F010FC0460A007BDE8F0877E
:1005500046F48066E4E70028F8DA02F005FC04605F
:100560006FF00040F2E710B5141E73F1000408DAD2
:10057000401C41F1000192185B411A4301D120F067
:10058000010010BD2DE9F04D92469B4611B1B1FA24
:1005900081F202E0B0FA80F220329046FFF78CFF41
:1005A00004460F4640EA0A0041EA0B0153465A4608
:1005B000084313D0114653EA010019D0C8F1400294
:1005C0005046FFF788FF05460E46504659464246BC
:1005D000FFF772FF084305D0012004E020463946AA
:1005E000BDE8F08D0020054346EAE0762C43374312
:1005F0000A986305E40AA0EB08000022FD0A44EA19
:1006000047540A3002D500200146E9E701051019D8
:100610006941DDE9084500196941BDE8F04DA2E7EF
:100620002DE9FE4F804681EA0300C00F0C46009082
:1006300021F0004123F00045B8EB0200A94105D2AA
:100640004046214690461C460B46024623F0004099
:10065000104347D0270DC7F30A00C3F30A51029095
:10066000401A019040286BDAC3F3130040F4801B5A
:100670000098924620B10023D2EB030A63EB0B0BE8
:1006800001985946C0F140025046FFF715FF064653
:100690000D4650465946019A00F01AF910EB080031
:1006A0006141002487EA115284EAE7731A4340D07B
:1006B000009A62B3019A012A4FEA075215DC001B27
:1006C00061EB02014FF0004202EA0752CDE900421D
:1006D000001C41F5801132462B46FFF753FF03B053
:1006E000BDE8F08F40462146F9E7001B61EB0201AF
:1006F000001C41F5801300185B412018A2F500177B
:1007000047EB030140EAD570B6196D4111E06D0861
:100710004FEA360645EAC0754FEA0752001B61EB07
:100720000201001C41F5801149084FEA3000001910
:10073000514132462B4603B0BDE8F04FFFF713BFDF
:100740000098012240000023D0EB020263EBE0732B
:10075000009821464FEAE074B8EB000061EB040119
:10076000E9E783F000435BE781F0004158E72DE9BA
:10077000F04D81EA030404F0004B21F000451446DB
:100780004FF0000A23F0004150EA050220D054EA5D
:1007900001021DD0C5F30A570246C5F31303C1F386
:1007A0001300C1F30A5640F4801543F48013A7EBFD
:1007B0000608101BD64608F2FD3873EB050002D37D
:1007C00008F1010801E092185B41B8F1000F03DA6B
:1007D00000200146BDE8F08D00204FF48011064650
:1007E00084460EE0171B73EB050705D3121B63EB62
:1007F000050306434CEA010C49084FEA3000921801
:100800005B4150EA0107EDD152EA030012D082EABF
:10081000040083EA0501084305D0101BAB4106D252
:100820000122002306E000224FF0004302E06FF0B7
:10083000010253101AEB06004CEB085110EB0A00B2
:1008400041EB0B01BDE8F04DFFF78DBEC1F30A523D
:10085000C1F3130140F2FF3341F480119A4202DAEE
:1008600000200146704740F233439A42A2F23342DD
:1008700002DC5242FFF72FBEFFF71EBE30B5041E4A
:1008800071F1000404DB4FF00044404264EB0101CD
:10089000141E73F1000405DB1C464FF00043524266
:1008A00063EB0403994208BF904230BD064C074DEC
:1008B00006E0E06840F0010394E807009847103430
:1008C000AC42F6D3FFF776FC183E0108383E01082B
:1008D000202A06DBCB17203A41FA02F043EAE07304
:1008E00006E041FA02F3D040C2F1200291400843F1
:1008F000194670472DE9F05F8246007800271546BB
:100900008B460AF10104B946302801D09DB113E0AD
:1009100014F8010B0127782803D0582801D045B1DD
:100920000AE00DB1102D07D10027102514F8010B96
:1009300002E0082500E00A250026B0460EE005FB8F
:10094000080005FB06F1012701EB10461FFA80F8AD
:10095000B6F5803F00D3B94614F8010B294600F0E4
:1009600018F80028EBDABBF1000F05D00FB1641EB8
:1009700000E05446CBF80040B9F1000F06D002F079
:10098000F3F902210160C81EBDE8F09F48EA064065
:10099000FAE73A2800D2303820F02002412A01D369
:1009A000A2F13700884201D34FF0FF30704730B5D5
:1009B0008C1810F8012B12F00F0301D110F8013B35
:1009C000120906D110F8012B03E010F8015B01F8C1
:1009D000015B5B1EF9D101E001F8013B521EFBD126
:1009E000A142E6D3002030BD0FB438B505A8009071
:1009F0004FF480710D48009B049A02F09FF9044661
:100A0000B4F5807F06DD4FF480720849002001F0C4
:100A1000FFFC04E022460549002001F0F9FC00201B
:100A20000090204638BC5DF814FB00001C31052006
:100A300070B504460CB9002070BD002547F60C5176
:100A400008590A2112F07EFA01280BD147F6085006
:100A5000005B85B247F60C51085900231A46194627
:100A600012F006F92846E7E710B504460CB9022053
:100A700010BD00214FF4FA400151001D0151001D2D
:100A80000151012012F06CF847F60C51085108464C
:100A9000005908B90120EBE70020E9E72DE9F0470C
:100AA00004460F4691461CB117B1B9F1000F02D1AF
:100AB0000020BDE8F08747F60C5108590A2112F0D2
:100AC00041FA012801D00020F3E747F60850005909
:100AD000484503D247F60850005900E0484685B221
:100AE0004FF000084FF4FA7A002D34DD47F6045039
:100AF000005BAAEB000086B2AE4201DA304600E0AD
:100B000028460646B20147F60450005904EB80110E
:100B10003846FFF7FDFB08EB06001FFA80F8A845F2
:100B200007DAA91B8A0107EB86102146FFF7F0FBC5
:100B3000A84647F6045000592844B0FBFAF10AFBD6
:100B4000110147F604500151001D0059411B47F6A1
:100B50000850015100BF47F60C51085900231A46AE
:100B6000194612F085F84046A3E770B504460D46D5
:100B700004B10DB9022070BD47F60C5108590A2185
:100B800012F0E0F9012801D00320F4E7002647F62F
:100B900008500059B0F5FA7F01D301261DE04FF44B
:100BA000FA41095904EB811040222946FFF7B0FBB6
:100BB0004FF4FA400059401C4FF4FA71B0FBF1F2C7
:100BC00001FB12014FF4FA40015147F60850005959
:100BD000401C47F608510851002647F60C510859A9
:100BE00000231A46194612F043F83046C3E70000C6
:100BF0002DE9F0412DED028B8AB004460025242119
:100C000001A8FFF7ACFB9FED7F0AB0EE408A9FED95
:100C10007D0AF0EE408AD4F8160000EE100ADFEDEF
:100C20007A0AB4EEE00AF1EE10FA36DDD4F81A00D2
:100C300000EE100A7548D0F80B0000EE900AB4EEF2
:100C4000E00AF1EE10FA03D27048D0F80B0001E090
:100C5000D4F81A0008EE900AD4F81A0000EE100A30
:100C60006A48D0F8070000EE900AB4EEE00AF1EE10
:100C700010FA03DD6548D0F8070001E0D4F81A0047
:100C800008EE900AD4F8160000EE100AB4EEE80A56
:100C9000F1EE10FA01DD45F00105D4F81E0000EE7A
:100CA000100ADFED590AB4EEE00AF1EE10FA36DD73
:100CB000D4F8220000EE100A5448D0F81B0000EED1
:100CC000900AB4EEE00AF1EE10FA03D24F48D0F8E1
:100CD0001B0001E0D4F8220008EE100AD4F822002C
:100CE00000EE100A4948D0F8170000EE900AB4EE62
:100CF000E00AF1EE10FA03DD4448D0F8170001E0F5
:100D0000D4F8220008EE100AD4F81E0000EE100AF3
:100D1000B4EEC80AF1EE10FA01DD45F00205002D2F
:100D20006DD03B4908690A2112F00CF9012804D062
:100D30000AB0BDEC028BBDE8F081012D01D101208C
:100D400004E0022D01D1022000E003208DF8120002
:100D50009DF812002E49097B884207D12C490023B7
:100D60001A460869194611F083FFE1E720680190EF
:100D7000A088A41CADF808006668A1684FF47A72D8
:100D800000233046FFF78EFA90B2ADF81000666887
:100D9000A168A41E4FF47A7200233046FFF782FA4E
:100DA0000390A0201A494873C02088739DF8120050
:100DB00008730398401E88600020C87300231A46F9
:100DC000086801A911F054FF8046B8F1010F07D05F
:100DD0000F4900231A460869194611F049FFA7E791
:100DE000002000900A494868694611F0CDFF084983
:100DF00000231A460869194611F03AFF00BF00BFE8
:100E000096E70000000000000000C842107F0020AC
:100E1000EC01002010B5124908690A2112F092F87D
:100E2000012800D010BD0E48407BA0280ED1B02074
:100E30000B49487300BF01210A4805F000FD00BFBF
:100E400000BF4021084805F0FAFC00BF0449002318
:100E50001A460869194611F00BFF00BFE2E70000CF
:100E6000EC010020001002400014024010B50446BE
:100E70000CB9012010BD4FF407712046FFF76FFA3F
:100E8000012011F06DFEE060E06808B90120F1E793
:100E9000154880795A2804D1144820610020A060A8
:100EA0001FE01148B0F82900A0820F48B0F82B00CD
:100EB000E082E08A800100EB4001C1EBC010A0603D
:100EC000E08A800100EB4001C1EBC01007494018E7
:100ED00020610548D0F8310060600348D0F82D004B
:100EE00020604FF00000C5E7107F002000879303CB
:100EF00010B58AB0242101A8FFF731FA2249086908
:100F00000A2112F01FF8012801D00AB010BD0520F7
:100F10008DF812001C4880681B49C97B0844039067
:100F2000194900231A46086801A911F0A1FE0446D8
:100F3000012C07D0144900231A460869194611F0FC
:100F400097FEE2E71048C07B401C0F49C873084673
:100F5000C07B032807DB0846807BC02803D1002024
:100F60000873D020887300200090074948686946BC
:100F700011F00AFF044900231A460869194611F0C6
:100F800077FE00BFC1E70000EC01002010B5044669
:100F90000CB9012010BD012011F0E2FD2061206993
:100FA00008B90120F6E703220021012011F0E9FD34
:100FB0006060606808B90120ECE700222421052068
:100FC00011F0DFFD2060206820B9606811F052FB4D
:100FD0000120DFE70020DDE710B504460CB9012051
:100FE00010BD24212046FFF7BAF9012011F0B8FD09
:100FF000A060A06808B90120F2E7174880795A2854
:1010000008D1002020604FF4A04060604FF0F860ED
:10101000E0601FE01048B0F8270020820E48B0F8CA
:10102000270000EBC000002101EB800020600A488F
:10103000B0F827004BF67F3148434FF4A04101EB55
:10104000800060600448B0F827004FF0F86101EBC1
:101050000010E0600020C3E7107F002000BFFEE723
:1010600070B500254FF0807400E0641E24B180202C
:101070000BF04CFF0028F8D014B90325284670BDAA
:1010800040F2FF700BF03CFF2846F8E72DE9F041F5
:1010900006460027002500244348056801E0424831
:1010A000056805F045000028F9D005F0040030B1CE
:1010B000032704200BF024FF3846BDE8F08105F03B
:1010C000010028B1012701200BF01AFF3846F4E790
:1010D0000BF090FEB04202D010273846EDE740F208
:1010E000FF700BF00DFF00200BF050FF04462F485F
:1010F000204008B93846E0E704F0004008B11C2061
:10110000DBE704F0804008B10920D6E704F0005086
:1011100008B10A20D1E704F0805008B10B20CCE7D9
:1011200004F0006008B10C20C7E704F0806008B14B
:101130000D20C2E704F0807008B10E20BDE704F472
:10114000000008B10F20B8E704F4800008B11020B7
:10115000B3E704F4001008B11120AEE704F48010E6
:1011600008B11220A9E704F4002008B11320A4E775
:1011700004F4802008B114209FE704F4003008B183
:1011800015209AE704F4804008B1182095E704F48C
:10119000005008B1192090E704F0080008B11A20A7
:1011A0008BE7384689E70000342C014008E0FFFD5A
:1011B00070B500251048046801E00F48046804F089
:1011C00045000028F9D004F0040028B103250420CC
:1011D0000BF096FE284670BD04F0010028B10125F1
:1011E00001200BF08DFE2846F5E740F2FF700BF072
:1011F00087FE2846EFE70000342C014070B500253B
:101200000B48046801E00A48046804F0450000281F
:10121000F9D004F0040028B1032504200BF070FE7F
:10122000284670BD40F2FF700BF06AFE2846F8E7D2
:10123000342C01402DE9F04107460E464FF00008DE
:10124000002500242248056801E02148056805F0D2
:1012500045000028F9D005F0040038B14FF003082C
:1012600004200BF04DFE4046BDE8F08105F0010082
:1012700030B14FF0010801200BF042FE4046F3E789
:101280000BF0B8FDB84203D04FF010084046EBE732
:1012900040F2FF700BF034FE00200BF077FE0446A6
:1012A00004F4604018B9200C30804046DCE704F4B8
:1012B000005008B11320D7E704F4804008B1102093
:1012C000D2E704F4004008B10F20CDE74046CBE759
:1012D000342C014010B540F604400BF0DFFA4FF417
:1012E000804300221146024805F0BAFA10BD000002
:1012F0000010024010B500F09DF810BD10B500249C
:1013000001231A4619461F4805F0AAFA00220121B6
:101310001C4805F098FA4FF4F07002F023FD01220A
:101320001146184805F08FFA01231A460021154886
:1013300005F096FA462002F015FD04E0601CC4B2E8
:10134000012002F00FFD01210E4805F081FA08B1DD
:10135000642CF3DB642C01DB012010BD002404E0CD
:10136000601CC4B2012002F0FDFC0121054805F01B
:101370006FFA08B9F02CF3DBF02C01DB0120ECE76D
:101380000020EAE70004024010B5FF2440F60140C7
:101390000BF084FA01231A461946074805F060FA53
:1013A000012302220021044805F081FAFFF7A6FF7D
:1013B0000446204610BD00000004024000BFFEE7C6
:1013C00008B500200090114803F0A8FD012807D1BE
:1013D0000F48006820B169460D48006811F0D4FC40
:1013E0000A4803F08FFD09480A3003F08BFD00988E
:1013F00058B100BF009838B14FF0805005490860DF
:10140000BFF34F8FBFF36F8F00BF08BD0605040009
:10141000B801002004ED00E010B541F20B100BF014
:101420003DFA40F616400BF039FA00F0D9F80BF00F
:101430003FFD10BD10B520220621064802F08DFDAB
:1014400038B120220621034802F068FD012002493C
:10145000086010BD006402404C00002070B50646D4
:101460000024292500200BF091FD00F0007010B140
:101470000E25284670BD012E3AD1022206212248AF
:1014800000F00FFC002400E0641C4CF25030844259
:10149000FAD30620FFF7FAFD05460DB12846E9E725
:1014A00002220621194800F0FCFB002400E0641C25
:1014B0004CF250308442FAD30620FFF7E7FD054690
:1014C0000DB12846D6E702220621114800F0E9FBBB
:1014D000002400E0641C4CF250308442FAD3062011
:1014E000FFF7D4FD05460DB12846C3E72846C1E7FE
:1014F0003720FFF7CBFD05460DB12846BAE70DB101
:101500002846B7E72846B5E70008BB030001B90342
:101510000002B70370B505460024B5F5805F09D118
:101520000120FFF79BFF0446D4B90321FF2000F000
:1015300091FB15E0B5F5006F09D10120FFF78EFF93
:1015400004466CB90221FF2000F084FB08E0002073
:10155000FFF784FF04461CB90121FF2000F07AFB4D
:10156000204670BD70B503461446002000220B4D86
:101570002D789D721C810D682A0E15019D810D68C4
:10158000C5F307429D8945EA12159D8102F00F05BA
:101590005D601E790125B5405D6070BD6000002072
:1015A00008B500200090684600F0FAFB08B1FF2063
:1015B00008BD0098C0F34320FAE710B50424FFF7F4
:1015C000EFFF0446042C01D1002010BD062C01D1F0
:1015D0000020FAE7FF2C01D10220F6E70120F4E712
:1015E00010B540F601400BF059F940F602400BF0FF
:1015F00055F940F603400BF051F94FF480720C217D
:101600005E4805F0EBF84FF400720C215B4805F0E2
:10161000E5F84FF480620C21584805F0DFF84FF4EC
:1016200000620C21554805F0D9F84FF480720C2166
:10163000534805F0D3F84FF400720C21504805F0E0
:10164000CDF840220C214D4805F0C8F880220C212D
:101650004A4805F0C3F804220C214A4805F0BEF8B8
:101660004FF480520C21454805F0B8F84FF48073D0
:1016700001220221414805F0F3F84FF400730122E2
:1016800002213E4805F0ECF84FF48063012202216C
:101690003A4805F0E5F84FF400630122022137488B
:1016A00005F0DEF84FF4807301220221344805F082
:1016B000D7F84FF4007301220221314805F0D0F829
:1016C0004023012202212D4805F0CAF8802301227F
:1016D00002212A4805F0C4F80423012202212948E6
:1016E00005F0BEF84FF4805301220221234805F093
:1016F000B7F84FF4807303220021204805F0D7F893
:101700004FF40073032200211C4805F0D0F84FF479
:10171000806303220021194805F0C9F84FF40063E3
:1017200003220021154805F0C2F84FF4807303220C
:101730000021134805F0BBF84FF400730322002189
:101740000F4805F0B4F84023032200210B4805F0B0
:10175000AEF8802303220021084805F0A8F80423EE
:1017600003220021074805F0A2F84FF4805303221A
:101770000021024805F09BF810BD0000000802405F
:1017800000040240000C024008B500200090FFF762
:1017900043FE00F013F900909DF8000028B110A05E
:1017A00001F0BCFA9DF8000008BD124800F02EF8C8
:1017B00000909DF8000028B10FA001F0AFFA9DF84D
:1017C0000000F1E79DF8000030B901200949887355
:1017D0000003FFF79FFE00909DF80000E4E7000083
:1017E000506F7765724F6EE99499E8AFAF210D0A9B
:1017F00000000000542F0320496E697469616C6910
:101800007A65E99499E8AFAF210D0A007CB50646E8
:101810000024002001900120009000250BF0AAFB7D
:1018200010B9252420467CBD03220221002000F0AF
:1018300038FA03220221002000F033FA002501E0EB
:10184000681C85B24EF660208542F9DBFFF7B0FCDC
:10185000044602220321002000F023FA69460320F7
:10186000FFF7E8FC0446BDF8001008040322092134
:1018700000F017FAFFF79CFC044601200BF086FBF2
:1018800001900B490989080400F07CFA04460848D5
:1018900000F0DEF80446BDF8002001A93046FFF74D
:1018A00061FE04460CB12046BDE700242046BAE79D
:1018B000542F032030B589B005460C46202206215E
:1018C0001B4802F0EDFA10220621194802F0E8FA4E
:1018D0000621174802F05EFA0621154802F08DFA3B
:1018E00014480090012001900295002003904FF4CD
:1018F000805004900120059000200690A0080790D9
:101900004FF4403008906A460621094802F028FC4E
:1019100004220621064802F05DFA1022062104483E
:1019200002F0DDFA0621024802F044FA09B030BDA7
:1019300000640240802C014030B589B005460C4659
:10194000202206211B4802F0ABFA1022062119487A
:1019500002F0A6FA0621174802F01CFA06211548E3
:1019600002F04BFA144800900120019002950020EB
:1019700003904FF480500490012005904020069081
:10198000A00807904FF4403008906A4606210948A5
:1019900002F0E6FB04220621064802F01BFA1022A0
:1019A0000621044802F09BFA0621024802F002FADE
:1019B00009B030BD00640240802C0140F8B5002021
:1019C0000090002400250026FF270121762000F04A
:1019D00041F903200BF0D4FA0BF002FA00BF00E04B
:1019E0006D1C4FF6FF708542FAD301220021084694
:1019F00000F057F9FFF734FB00909DF8000010B19C
:101A00009DF80000F8BD07200F49086000BF0222C2
:101A100001210E4800F045F9FFF7F0FB009000208F
:101A20000BF0B4FA0646012080EAD67080F0010679
:101A3000641CBC4205D29DF800000028E7D1002EAE
:101A4000E5D09DF80000DDE7600000208080FF40C9
:101A5000F0B5ADF5057D064600270024002501AD53
:101A600090224FF40071601E0BF0F0F9022100206B
:101A70000BF010FA0BF03AFA02220821002000F0D5
:101A800010F90820FFF702FB07461FB138460DF595
:101A9000057DF0BD0EE04FF400400BF037FA48B181
:101AA000002404E00BF0F0F945F82400641C082C35
:101AB000F8D320352A48006840F22A6108400028FF
:101AC000E9D008200BF022FA28B108200BF018FA10
:101AD00004273846DBE702200BF018FA28B1022071
:101AE0000BF00EFA02273846D1E720200BF00EFA51
:101AF00028B120200BF004FA06273846C7E74FF438
:101B000000700BF003FA30B14FF400700BF0F8F9ED
:101B100007273846BBE74FF0FF3404E00BF0B4F979
:101B200028602D1D641E4FF400100BF0EFF908B172
:101B3000002CF3D140F2FF700BF0E2F99DF8D810C1
:101B40009DF8D90001EB00219DF8DA0001EB00417E
:101B50009DF8DB0001EB00603060384697E700003D
:101B6000342C01402DE9F84380460F4616461C46AA
:101B70000025002000904FF00209314908703149DA
:101B8000086001203049086000203049086014B91D
:101B90002846BDE8F88304FB06F14046FFF78AFEBD
:101BA0000BF09AF902221021304600F07AF828480A
:101BB000006800901020FFF769FA05460DB128462D
:101BC000E7E740F2FF700BF09BF904FB06F190226F
:101BD0004FF0FF300BF03AF9022100200BF05AF9D8
:101BE0000BF084F902221721204600F05AF8172042
:101BF000FFF74CFA05460DB12846CAE7022212212A
:101C0000384600F04EF81220FFF740FA05460DB1B5
:101C10002846BEE740F22A300BF094F90BF052F957
:101C200000F0D8F805460DB12846B2E700BFFFF72F
:101C3000C4FC8146B9F1000FF9D12846A9E700009C
:101C40005C00002054000020500000204C000020C8
:101C5000342C014070B506460D46012D01D10024FB
:101C600009E0022D01D1AC0205E0032D02D14FF4B1
:101C7000805400E00024FF2E07D100231A464FF4C1
:101C8000806118460BF092F805E0334600221146B9
:101C900010460BF08BF820460BF07AF80BF040F969
:101CA00070BD2DE9F04106460F461546012D01D1C4
:101CB000002408E0022D01D1402404E0032D01D1CD
:101CC000C02400E000242246314638460BF098F844
:101CD00000200BF079F90BF0AFF8BDE8F0810000BF
:101CE00010B54CF23A300BF025F94FF480700BF040
:101CF00037F950B10020214908704FF480700BF083
:101D000029F901201E49086037E002200BF028F96C
:101D100030B102200BF01EF90220184908702CE0A7
:101D200008200BF01DF930B108200BF013F9042046
:101D30001249087021E020200BF012F930B1202068
:101D40000BF008F906200D49087016E010200BF082
:101D500007F930B110200BF0FDF805200749087095
:101D60000BE04FF400700BF0FBF830B14FF4007053
:101D70000BF0F0F807200149087010BD5C0000204E
:101D80005400002070B50446002502220721204699
:101D9000FFF787FF0720FFF779F90546284670BD52
:101DA00070B50446002514B92625284670BD0222C8
:101DB0000D210020FFF775FF0D20FFF767F905469D
:101DC0000DB12846F2E700200BF0E0F8206028462D
:101DD000ECE7000070B500256C1E00E0641E16489C
:101DE000006838B91548006820B91548007808B966
:101DF000002CF3D14FF0FF3400E0641E114800685E
:101E000000F4005008B1002CF7D10F4800680128F9
:101E100002D100200C4908600CB905B9042540F234
:101E2000FF700BF06DF80648007810B10448007898
:101E300070BD2846FCE700004C0000205400002044
:101E40005C000020342C01405000002070B50025BB
:101E50006C1E00E0641E1248006838B91148006822
:101E600020B91148007808B9002CF3D14FF0FF34A5
:101E700000E0641E0D48006800F4805008B1002C9A
:101E8000F7D140F2FF700BF03BF80CB905B904250F
:101E90000548007810B10448007870BD2846FCE77A
:101EA0004C000020540000205C000020342C014035
:101EB0002DE9F84F82460F4615461E460024A146DE
:101EC000002000903C4908703C4908603C4908608B
:101ED00006FB05F15046FFF72FFD0AF0FDFF3948DC
:101EE0000068022801D105027F0A0222102128463B
:101EF000FFF7D7FE1020FFF7C9F8044614B12046BB
:101F0000BDE8F88F022217213046FFF7CAFE1720DE
:101F1000FFF7BCF804460CB12046F1E70222192174
:101F20003846FFF7BEFE1920FFF7B0F804460CB1A3
:101F30002046E5E740F2FF700AF0E2FF06FB05F1FC
:101F400090224FF0FF300AF081FF002108460AF08E
:101F5000A1FF0AF0CBFF40F22A300AF0F3FF0AF0AB
:101F6000B1FFFFF773FF04460CB12046C8E768468F
:101F700000F044F904460CE0684600F03FF90446DE
:101F80004FF0000901E009F1010942F210708145AA
:101F9000F9D33CB99DF800000728EDD09DF800006A
:101FA0000628E9D000BFFFF708FB8046B8F1000F14
:101FB000F9D12046A4E700005C0000205400002076
:101FC0004C0000206000002000BFFEE710B5044672
:101FD00004B910BDE0880AF061FCA0880AF05EFC3C
:101FE000217DD4E9020204F0F9FB217D2269A06879
:101FF00004F0F4FB01220221D4E9020304F030FCD6
:1020000002220121D4E9020304F051FC0122022141
:102010002369A06804F024FC022201212369A0683E
:1020200004F045FC206804F0FBFC0022A169206854
:1020300004F07CFC00231A461946206804F04EFD8B
:10204000206804F019FD4FF48061206804F050FC12
:1020500000BFBEE72DE9F0470446894690461E467C
:10206000089F06B117B90120BDE8F087206804F089
:10207000D9FD4FF4A061204604F0EEFD08B1012027
:10208000F2E76FF001024946206804F01DFD40F2BE
:102090000151204604F0E0FD08B10120E4E740F2E0
:1020A0000151206804F0EDFC4146206804F0B4FCC6
:1020B00040F20751204604F0CFFD08B10120D3E7DC
:1020C000206804F0AFFD4FF4A061204604F0C4FD89
:1020D00008B10120C8E701224946206804F0F4FC59
:1020E00040F20151204604F0B7FD08B10120BBE7E2
:1020F00040F20151206804F0C4FC002514E0781E71
:10210000A84203D10021206804F0F2FB40F20651FE
:10211000204604F0A1FD08B10120A5E7206804F0E5
:1021200077FC7055681C85B2BD42E8DB206804F07E
:102130008DFD00BF2068006800F400700028F9D110
:102140004FF48061206804F0D3FB00208CE72DE978
:10215000F0470446894617461D46DDF8208015B134
:10216000B8F1000F02D10120BDE8F087206804F02B
:1021700059FD4FF4A061204604F06EFD08B1012026
:10218000F2E76FF001024946206804F09DFC40F23E
:102190000151204604F060FD08B10120E4E740F25F
:1021A0000151206804F06DFC3946206804F034FCCD
:1021B00040F20751204604F04FFD08B10120D3E75B
:1021C00000260DE0A95D206804F026FC40F20751CE
:1021D000204604F041FD08B10120C5E7701C86B21D
:1021E0004645EFDB206804F031FD00BF2068006841
:1021F00000F400700028F9D100BFB5E77CB50446B3
:10220000002500200190009002220D21FFF749FDDA
:1022100051480068009002E04F4800680090009824
:1022200000F045000028F7D0009800F0040028B125
:10223000032504200AF064FE28467CBD009800F0C7
:10224000010028B1012501200AF05AFE2846F4E7D2
:102250000AF0D0FD009000980D2802D010252846E5
:10226000EBE740F2FF700AF04BFE00200AF08EFE12
:1022700001900198C0F3432020703849019808402C
:1022800008B92846D9E7019800F0004008B11C20A1
:10229000D3E7019800F0804008B10920CDE701980C
:1022A00000F0005008B10A20C7E7019800F0805004
:1022B00008B10B20C1E7019800F0006008B10C20C4
:1022C000BBE7019800F0806008B10D20B5E70198E8
:1022D00000F0807008B10E20AFE7019800F4000014
:1022E00008B10F20A9E7019800F4800008B1102080
:1022F000A3E7019800F4001008B111209DE70198B0
:1023000000F4801008B1122097E7019800F4002033
:1023100008B1132091E7019800F4802008B114203F
:102320008BE7019800F4003008B1152085E701988B
:1023300000F4804008B118207FE7019800F40050B5
:1023400008B1192079E7019800F0080008B11A20B7
:1023500073E7284671E70000342C014008E0FFFDD8
:1023600000BFFEE700BFFEE710B5002807DA0A0746
:10237000140E054A00F00F031B1FD45403E00A0794
:10238000130E024A135410BD18ED00E000E400E003
:1023900010B5FFF7A5FC10BD2DE9F05F05460F460F
:1023A0009046994600BFDFF864B09BF800005328C0
:1023B00001D000F005FC00BFDFF850A0032D1FD2B4
:1023C000EFF311810846202181F3118800BF00BF7F
:1023D00005EB45020AF1180101EBC2043DB127608B
:1023E000C4F80480C4F8089000212161E1600A99D2
:1023F0006161C1B281F3118800BF00BF002601E016
:102400004FF0FF363046BDE8F09F00001C3205203B
:102410002DE9F04104460D46164600BF0E4F3878B0
:10242000532801D000F0CCFB00BFEFF3118007462A
:10243000202080F3118800BF00BF32462946204685
:1024400000F00CF88046F8B280F3118800BF00BF9E
:102450004046BDE8F08100001C3205202DE9F04720
:10246000074688461646C24607EB47011B4800EB65
:10247000C109D9F8140020B1012811D0022826D1B1
:102480001EE0484600F0D4FB0546B54201D20024C8
:1024900005E0344632465146484600F012FC18E04A
:1024A000484600F0C5FB0546B54201D2284600E08B
:1024B0003046044622465146484600F002FC08E0F9
:1024C00032465146484600F0C1FB044601E0002474
:1024D00000BF00BF2046BDE8F08700003432052071
:1024E0002DE9F04FADF5037D05460F469046994620
:1024F0004FF0FF30829015B1B9F1000F04D18298EE
:102500000DF5037DBDE8F08F6421E86810F01AFD39
:10251000012801D08298F3E70024012695F818A03D
:10252000DFF8CCB0710202A8FDF719FF720205F1C5
:102530001C0102A8FDF7ECFE00BF1DE002A800EBA5
:10254000C4004068B84215D102A850F83400009089
:10255000AB8A394627488C9AFEF746FA02A850F80B
:10256000340000EB080148468C9A01F0BDFF0020C2
:10257000829035E0601CC4B25445DFDB00262BE0BE
:102580000BEB0601012202A801F0AEFF4FF0400A5A
:1025900000241DE002A800EBC4004068B84215D139
:1025A00002A850F834000090AB8A394611488C9A42
:1025B000FEF71AFA02A850F8340000EB080148466A
:1025C0008C9A01F091FF0020829009E0601CC4B257
:1025D0005445DFDB701C86B2A88AB042D0DC00BF55
:1025E00000231A461946E86810F042FB829887E7F4
:1025F00000879303FC3A01082DE9F04FC1B004466F
:102600008A4693461E464FF0FF30409004B126B9EB
:102610004FF0FF3041B0BDE8F08F6421A06810F0AA
:1026200091FC012802D04FF0FF30F3E74FF48071A6
:102630006846FDF794FE4FF0F8670025A846A946C6
:1026400000BF4FF480726946384604F009F800254F
:1026500013E0684600EB0519D9F8080050450AD187
:10266000D9F8041001EB0B0031464A9A03F0F8FF49
:10267000002040900DE0681CC5B2102DE9DB08F188
:1026800010001FFA80F807F58077208A4045D8DCD3
:1026900000BF00231A461946A06810F0E9FA4098D6
:1026A000B8E72DE9F04704460D4616461F464FF0A1
:1026B000FF3904B11EB94FF0FF30BDE8F087642147
:1026C000A06810F03FFC012802D04FF0FF30F4E783
:1026D00005EBC500002101EB8008E819218A88423A
:1026E00008DD00231A461946A06810F0C1FA4FF021
:1026F000FF30E2E707EBC70082003146404603F0B7
:10270000AFFF00231A461946A06810F0B1FA4846F8
:10271000D3E700002DE9F0470446884616461F46D9
:10272000DDF8209004B11EB94FF0FF30BDE8F0870E
:102730006421E06810F006FC012802D04FF0FF3061
:10274000F4E7A5683A462946304601F093FEE819B9
:10275000A06000213A4BA068C01A894101D3002033
:10276000A060B9F1000F62D0217E04F11C0000EBE3
:10277000C100C0F80480217E04F11C0040F83150F3
:10278000207E401C2076207E402850DB012204F170
:102790001C00216901F06EFEE08AA8B9A08A002120
:1027A00041F64C5358404940084306D12069411C2A
:1027B000012204F11C0001F097FE206A206021A094
:1027C000A26A216AFEF710F9D4F8180260600020AE
:1027D00020762069401C2061A08A401CA082E08AEB
:1027E000401CE082E08A002141F64C53C01A894126
:1027F00005D3134820610020E0821846A082A08AF9
:102800001A49A1F82900E08AA1F82B002068C1F834
:102810002D006068C1F83100012015490870134887
:10282000D0F83120D0F82D1012A0FEF7DDF80023EB
:102830001A461946E06810F01BFA002076E70000FF
:102840000087930353746F726167655F5772697491
:10285000655F416463446174612C2074733A25643C
:102860002C2074733A25640D0A000000107F0020AC
:102870001C00002053746F726167655F5772697442
:10288000655F416463446174612C20735F74733AC3
:1028900025642C20655F74733A25640D0A000000DE
:1028A0002DE9F04704460E4691461D46DDE90878BD
:1028B00004B11DB94FF0FF30BDE8F0876421A06876
:1028C00010F040FB012802D04FF0FF30F4E7E06940
:1028D000B04208D000231A461946A06810F0C8F983
:1028E0004FF0FF30E8E73A462946606803F00CFFF6
:1028F000606838446060B8F1000F21D0102204F104
:102900001401E06803F000FFE0681030E060208A06
:10291000401C2082208AB0F5207F0ADB4FF4207013
:102920002082002020604FF4A04060604FF0F860EB
:10293000E060208A0649A1F82700012005490870B7
:1029400000231A461946A06810F092F90020B3E758
:10295000107F00201C00002070B504460E4615466E
:1029600004B115B94FF0FF3070BD6421A06810F0BC
:10297000E9FA012802D04FF0FF30F5E7242229467A
:10298000206803F0C1FEE661206860616168A161B2
:1029900020682430206000231A461946A06810F0F1
:1029A00067F90020E0E710B501F0B6F910F00AFC75
:1029B000012801D010F0BAF810BD00001CB55A482B
:1029C000006840F47000584908605848006840F0BA
:1029D00001005649086000BF5448006800F002003A
:1029E0000028F9D051480830006800F00C00082891
:1029F0006ED100BF0020019002E00198401C0190C0
:102A000001985028F9D34948083000680090009890
:102A100020F0F0000090009840F0800000904349C2
:102A20000831009808600020019002E00198401CE5
:102A3000019001985028F9D33C4808300068009074
:102A4000009820F0F0000090009840F09000009076
:102A500036490831009808600020019002E0019892
:102A6000401C019001985028F9D330480830006884
:102A70000090009820F0F0000090009840F0A00036
:102A800000902A490831009808600020019002E077
:102A90000198401C019001985028F9D32348083030
:102AA00000680090009820F0F0000090009840F03E
:102AB000B00000901D490831009808600020019086
:102AC00002E00198401C019001985028F9D300BF02
:102AD000C82000F0C1FD15480830006820F0030050
:102AE00012490831086011480068114908400F492F
:102AF00008600846006820F48020086000200B4928
:102B00000831086000BF094808300068002000282C
:102B1000F9D108480549091D0860002003490C3116
:102B200008600BF047F81CBD88ED00E0003802405B
:102B3000FFFFF6FE1030002410B5012105480FF00C
:102B4000E4F828B1012103480FF0DCF80EF090FF03
:102B500010BD0000000001402DE9F0410746884605
:102B6000164600210C460D46134948690A2110F00B
:102B7000E9F901281BD110480D30016831608088C7
:102B8000B0800D4800684FF47A71A0FB0140054603
:102B90000A46002338464146FDF784FB14195D417F
:102BA000054900231A464869194610F061F8204685
:102BB0002946BDE8F0810000D401002000BFFEE7F7
:102BC00070B5144CA8212046FDF7C9FB03202061F5
:102BD000606111A0A0611349E1614FF4805121624D
:102BE0000021A1626162E1620BA020660E4961666C
:102BF0001021A16600212167E1666167002505E0DB
:102C0000C5F10F000949085C60556D1C102DF7D304
:102C100070BD00001C3205205465726D696E616CD8
:102C200000000000C4320520C44205200C3A01080F
:102C300010B501460A69CB689A4204D88C68641EB4
:102C4000E41AA01801E0D41A601E10BD2DE9F05F4F
:102C50000446894617464FF0000AE56800BFD4F8DD
:102C60001080A84503D9A8EB0500461E04E0A5EB9B
:102C70000800401CA1680E1AA068401BB04201D990
:102C8000304601E0A068401B0646BE4201D23046F5
:102C900000E038460646606800EB050B32464946C0
:102CA0005846FDF735FBB244B144BF1B3544A0681C
:102CB000A84200D10025E560002FD0D15046BDE8E4
:102CC000F09F2DE9F047044689461546E668A0685E
:102CD000871BAF420AD9606800EB060A2A464946BC
:102CE0005046FDF715FB7019E06014E0B8466068C7
:102CF00000EB060A424649465046FDF709FBA5EBA4
:102D00000708D4F804A009EB070142465046FDF736
:102D1000FFFAC4F80C80BDE8F08700000FB4054B43
:102D200010B503A9044A029800F0F4F810BC5DF84D
:102D300014FB000001650008CC0100207CB50446AE
:102D400000201D46164600290BD0491ECDE9004142
:102D5000044B6A462946304600F0DCF8009A002110
:102D600011707CBD4336000800487047D001002038
:102D700002E008C8121F08C1002AFAD17047704744
:102D8000002001E001C1121F002AFBD170470000A2
:102D90002DE9FF5F82B00021DDE90430020DDDF88E
:102DA00040B0034318D044F61050A2F2FF32424321
:102DB0001514119801281FD0A5EB0B00401C5FEAE9
:102DC000000A4FF000064E4FDFF83891B0465046EB
:102DD00015D5CAF1000413E0119801244AA3012873
:102DE00001D16FEA0B010298119AC0E90031C0E9E4
:102DF000024206B0BDE8F09FCBF10000DFE70446D9
:102E00000021404A491842EB0450CDE9001012E07D
:102E1000E00707D032463B4640464946FDF7C4FA34
:102E20008046894632463B4610461946FDF7BCFAB5
:102E300006460F466410002CEAD1DDE90401DDE905
:102E40000023BAF1000F06DAFDF7AEFA42464B4610
:102E5000FDF7AAFA05E0FDF78AFC42464B46FDF76E
:102E600086FC04460E460022284BFDF707FD03D8DA
:102E70004FF0FF30014607E00022254B2046314647
:102E8000FDF7CEFBFDF7E2FC102409E0002C0ADB85
:102E90000A220023FDF706FA039B30321A55641EFE
:102EA00050EA0102F2D1641C039AC4F111031444E4
:102EB000119A012A03D0012208430DD10AE00843E8
:102EC00004D000204FF0110B119072E7A3EB0B051B
:102ED0006D1E0DE05B4504DD4FF0000205F10105BC
:102EE00004E003DA4FF00002A5F10105002AECD05E
:102EF00002981199C0E90231C0E9004579E7000064
:102F0000000014400000F03F300000000000F043DB
:102F10000000E03F2DE9FF4F95B09B4689460646ED
:102F200000250FE2252877D100242746F84A012101
:102F3000059400E0044316F8013F203B01FA03F03A
:102F40001042F7D130782A2811D06FF02F03307853
:102F5000A0F13002092A16D8059A44F0020402EBC7
:102F6000820203EB42021044761C0590EFE759F809
:102F7000042B0592002A03DA504244F400540590D1
:102F800044F00204761C30782E2816D116F8010F72
:102F900044F004042A280DD06FF02F023078A0F1FD
:102FA0003003092B09D807EB870302EB4303C7184B
:102FB000761CF3E759F8047B761C30786C280FD028
:102FC00006DC4C2817D068280DD06A2814D104E0FC
:102FD000742810D07A280FD10DE044F400140AE0D0
:102FE00044F4801401E044F440147278824202D127
:102FF00004F58014761C761C307866280BD013DC20
:10300000582877D009DC002875D04528F6D0462806
:10301000F4D047281AD19DE118E0632835D0642800
:1030200079D0652812D195E1702873D008DC672823
:10303000F1D069286FD06E280DD06F2806D1B5E089
:1030400073282CD0752875D0782874D05A461799D3
:1030500090476D1C75E1C4F30250022809D0032883
:103060000DD0D9F8001004280DD00D6009F1040925
:1030700067E1D9F80010EA17C1E90052F6E7D9F87C
:1030800000100D80F2E70D70F0E719F8041B8DF8C1
:10309000001000208DF80100EA46012003E059F8F5
:1030A00004AB4FF0FF3061074FF0000102D40DE098
:1030B00008F101018846B9420FDA8045F8DB1AF8B9
:1030C00008100029F4D108E008F101018846814286
:1030D000FADB1AF808100029F6D105985B46A0EB38
:1030E000080721463846179A00F094FA284400EB66
:1030F000080507E04DE029E10DE01AF8010B5A46FA
:1031000017999047B8F10108F7D25B462146384637
:10311000179A13E142E00A220092C4F302524FF0E0
:10312000000A022A08D059F804CB032A4FEAEC71AE
:103130000AD00DE029E02AE009F1070121F0070299
:10314000F2E802C1914609E00FFA8CFC4FEAEC71FB
:10315000042A03D14FFA8CFC4FEAEC71002907DAFC
:103160000A460021DCF1000C61EB02012D2202E095
:10317000220504D52B228DF80420012203E0E2076A
:1031800001D02022F7E7904659E00A2102E0102200
:103190000DE010214FF0000A00910BE010224FF0DB
:1031A000000A44F004040827009203E008224FF0CC
:1031B000000A0092C4F30252022A05D059F804CB47
:1031C0000021032A08D009E009F1070121F00702D4
:1031D000F2E802C1914605E01FFA8CFC042A01D1F5
:1031E0000CF0FF0C4FF00008220728D5702806D0FD
:1031F000009B83F0100353EA0A0305D00EE040223F
:103200008DF80420012208E05CEA010206D0302299
:103210008DF804208DF8050002229046009B83F073
:10322000080353EA0A030AD15CEA010201D16207EA
:1032300005D530228DF804204FF001087F1E582854
:1032400004D034A003900EA802900DE036A0F9E758
:1032500053466046009AFDF725F884460398825C41
:103260000298401E029002705CEA0100F0D10298C0
:1032700006A9081A00F1200A600702D524F4803458
:1032800000E00127574502DDA7EB0A0000E000201F
:1032900000EB0A01009005984144401A0590E003B4
:1032A00006D45B462146179A059800F0B3F9054409
:1032B000002706E001A85A46C05D179990476D1C8B
:1032C0007F1C4745F6DBE0030CD55B462146179A89
:1032D000059800F09FF9054404E030205A461799FC
:1032E00090476D1C0099481E00900029F5DC08E00D
:1032F000029802995A460078491C02911799904702
:103300006D1CBAF10001AAF1010AF1DC65E10000CF
:1033100009280100303132333435363738396162AB
:10332000636465660000000030313233343536376F
:1033300038394142434445460000000000F058F946
:103340000544761C307800287FF4ECAD19B028468F
:10335000BDE8F08F620700D4062709F1070222F0CA
:10336000070CFCE80223E14603F000485FEA080C82
:1033700002D00FF2702C0DE05FEA045C02D50FF270
:10338000682C07E05FEAC47C02D00FF2602C01E0F9
:10339000AFF2700C4FF0FF3823F00043CDF850C06F
:1033A00065280CD006DC452809D046281DD04728C2
:1033B0003DD13DE0662818D067287ED138E0002155
:1033C000112F01DB112000E0781CCDE9000106A9D6
:1033D0000EA8FFF7DDFCDDE90F010E9A0391002135
:1033E000009207F1010A04914DE04FF00040009770
:1033F000CDE9011006A90EA8FFF7CAFCDDE90F020E
:1034000003920E9B11990022DDF80CA00093049208
:1034100011B9791C00EB010AB7EB0A0004D4C0F122
:10342000FF3007F1010A0490AAEB0700019044E085
:10343000012F00DA01270021112F01DD112000E00A
:103440003846CDE9000106A90EA8FFF7A1FCDDE989
:103450000F010E9A0391002104910092BA462107B0
:103460000CD40399514500DA8A46BAF1010F05DD03
:10347000009AAAF10101515C302908D0B84202DA61
:1034800010F1040F06DA0121CDE9011015E0AAF1CF
:103490000101E9E7002805DC049901440491AAEB45
:1034A000000102E0411C514500DD8A460499401AA2
:1034B000401C01904FF000400290200704D4019876
:1034C000504501DBCDF8048000208DF84F000298B4
:1034D0000DF14F07B0F1004F25D02B200E90029830
:1034E0004FF0020800280CDA404202902D200E9086
:1034F00007E00A210298FCF7C9FF3031029007F873
:10350000011DB8F10001A8F10108F2DC02980028C1
:10351000EFD1791E0E980870307800F0200040F04E
:10352000450007F8020D12A8C01B00F10708149807
:10353000007800B1012000EB0A01019801EBE07175
:1035400005984144401A401E0590E00306D45B46AE
:103550002146179A059800F05DF805441498007804
:1035600018B15A46179990476D1CE00324D55B4665
:103570002146179A059800F04DF805441CE0049880
:10358000002807DBDDE90301884203DD0098405C89
:10359000179901E0179930205A469047049805F191
:1035A0000105401C04900198401E019004D12E207A
:1035B0005A46179990476D1CBAF10001AAF1010A09
:1035C000DDDC05E017F8010B5A46179990476D1C92
:1035D000B8F10001A8F10108F4DC5B462146179A16
:1035E0000598ABE62D0000002B0000002000000035
:1035F0002DE9F041044600251E461746880404D4F0
:1036000005E039462020B0476D1C641EF9D52846D8
:10361000BDE8F0812DE9F041044600251E469046A4
:10362000C80301D5302700E02027880404D505E031
:1036300041463846B0476D1C641EF9D52846BDE8A2
:10364000F0814A68002A06D00A68531C0B6010708B
:103650004868401E4860704708B50021009102E0AC
:103660000099491C009100EB8001009AB2EB410FD8
:10367000F6D308BD2DE9F04706460F46914634467D
:103680001CB96FF00500BDE8F08704F1140008B123
:10369000606910B96FF00500F5E7A7B96FF00C008D
:1036A00006F032F98046414604F114000AF0BFF8F2
:1036B00030B9606A20B1002211462046636A9847FB
:1036C0006FF00500DFE700BF00BF2078616A07F0F8
:1036D000A5FA0546A5B96FF00C0006F015F980466D
:1036E000414604F114000AF0A2F830B9606A20B132
:1036F000002211462046636A98474FF0FF30C2E728
:103700006F60284609F028FD294604F114000AF0EC
:103710008EF820B3D5F80480002140460AF0C8FB9B
:10372000002140460CF0FCFD002140460DF03BF826
:103730000022114640460BF095FF002140460AF05A
:1037400019FE0020686005F110000AF052F8002010
:103750002861284607F061FB4FF0FF3093E7606A6D
:1037600020B1002211462046636A984700208AE76C
:103770001CB50E48FDF70AFC0D48FDF775F90D481C
:10378000032100234FF40072CDE900100AA10E4876
:103790000FF0BCFC0D4804210023CA01CDE9001044
:1037A0000BA10E480FF0B2FC1CBD0000EC01002084
:1037B000000200200C00002074696D655F73796E53
:1037C000635F7461736B00001D190108080000201D
:1037D00073616D706C655F7461736B0091CA0008F2
:1037E0008CB04FF0FF34002552E02A4948684FF072
:1037F000FF310FF0A7FB01284AD141E09DF81A00E4
:10380000012807D09DF81A00032803D09DF81A005C
:10381000022811D100BF01211F4803F00EF800BF9C
:1038200000BF40211D4803F008F800BF03AA1C4850
:103830000599FFF791F823E09DF81A0005281FD19C
:1038400018A0FDF7D1F87D200090224B00222248DD
:103850000599FEF745FE044694B90E48C07B03283F
:1038600001DB012000E000204FF47A41CDE9001097
:1038700008488068411C174B2A460948FFF710F892
:1038800004490022086803A90FF0DAFA0128B5D02C
:10389000ABE70000EC0100200010024000140240E1
:1038A000CCE50020616C61726D5F7461736B2C20DC
:1038B000616C61726D5F6D73672E74797065203D08
:1038C0003D204255535F414C41524D5F5341564557
:1038D0000D0A0000F0F80120B0E300202DE9F041CE
:1038E00005460E46002434E009F017FF07461B4842
:1038F00000EB0410006840BB184800EB04100560A2
:10390000384609F030FF0020144901EB04114860EB
:1039100000BF00BF114901EB04110881287800F0B5
:10392000F000102804D10EB1012002E0002000E0D8
:1039300001200A4901EB041148810020074901EBED
:10394000041188812046BDE8F081384609F00BFF5C
:10395000641C042CC8DB4FF0FF30F4E72CD20320AA
:103960001CB50748052100234FF40072CDE9001073
:1039700004A107480FF0CAFB0FF052F81CBD00006D
:103980001000002073746172745F7461736B0000C7
:1039900045D50008014601F00F000A1102EB820232
:1039A00000EB4200C0B270472DE9F04304460B46DD
:1039B000154621461A4600BF032B01DA0C32491E78
:1039C00002F1010C0CEB8C0808EBCC0C4FF0050855
:1039D0009CFBF8FCAC444FF0640891FBF8F908FB41
:1039E0001918C4444FF0640891FBF8F908FB191743
:1039F0004FEAE77807EB98780CEBA80C4FF06408D7
:103A000091FBF8F64FEAE67806EB98780CEBA80CF9
:103A10004FF0640891FBF8F84FF0020909FB18C059
:103A2000072690FBF6F706FB170008B9062000E012
:103A3000401EBDE8F08330B502460020002305E0BB
:103A400012F8015B2C18A0B25C1CA3B28B42F7DB0E
:103A500030BD000010B540F6044008F01FFF40F6EE
:103A6000054008F01BFF042300220121264802F034
:103A7000F7FE082300220121234802F0F1FE102363
:103A800000220121204802F0EBFE40230022012108
:103A90001D4802F0E5FE8023002201211A4802F0B1
:103AA000DFFE202300221146174802F0D9FE4FF412
:103AB000807300221146154802F0D2FE4FF40063D5
:103AC00000221146104802F0CBFE4FF48063002222
:103AD00011460D4802F0C4FE08210B4802F0ADFE6D
:103AE0000421094802F0A9FE1021074802F0A7FEB0
:103AF0004021054802F0A1FE8021034802F09DFE0E
:103B000000F040F810BD0000001002400014024018
:103B10002DE9F04105460E460027B8460024102145
:103B2000164802F08AFE0F241DE00421134802F01B
:103B300086FE2021114802F08BFE18B10120A04022
:103B4000384387B24FF480710D4802F081FE28B1EE
:103B50000120A04040EA08001FFA80F8042107482D
:103B600002F06BFE641E002CDFDA1021034802F025
:103B700066FE2F80A6F80080BDE8F08100100240AC
:103B80000014024010B50821054802F058FE0A2032
:103B900000F0E8F80821024802F04FFE10BD0000D6
:103BA0000010024010B54021094802F046FE802175
:103BB000074802F042FE0A2000F0D4F840210448F1
:103BC00002F03DFE8021024802F039FE10BD0000E7
:103BD000001002402DE9F05F81460E4617469846D8
:103BE000DDF828B040F2B270814510DB012E0EDB0B
:103BF0000C2E0CDC012F0ADB1F2F08DCB8F1170F8D
:103C000005DCBBF13B0F02DC0B983B2802DD0020FA
:103C1000BDE8F09F002440F2B27A07E0504602F07F
:103C2000BFFD04440AF101001FFA80FACA45F5DB22
:103C30004FF0010A08E05146484602F097FD04445F
:103C40000AF1010000F0FF0AB245F4DB781E0444DB
:103C50000C4804FB00F5C8EB4810C0EB082005EB4E
:103C60000015CBEB0B1005EB80050B980544C8EB5A
:103C70004810C0EB0820B5EB001F01D20020C7E7B9
:103C80002846C5E78051010070B504460D4643F251
:103C9000042108594FF0FF310FF054F9204603F08A
:103CA00067FF012809D143F20421085900231A466D
:103CB00019460EF0DDFF002070BD2278A01C00EB3D
:103CC000C21180222846FCF723FB2278A11C01EBBD
:103CD000C2108021FCF743FB2078401C642190FB3C
:103CE000F1F201FB1200207043F204210859002375
:103CF0001A4619460EF0BCFF0120DDE701460A20F6
:103D000091FBF0F200FB12100A2291FBF2F240EA62
:103D10000210C0B2704700000648006820B1054894
:103D20000068401E0349086003480068401C0249BF
:103D300008607047280000202C00002008B5084AC1
:103D400009E00749009100E000BF00994B1E009375
:103D50000029F9D100BF011EA0F10100F1D108BD79
:103D6000400D030008B5C82209E0C821009100E019
:103D700000BF00994B1E00930029F9D100BF011E1E
:103D8000A0F10100F1D108BD0146C1F3002242F0CB
:103D90005000704710B501EB4102D30000F1100252
:103DA000D25822F0010301EB4102D40000F11002CD
:103DB000135110BD10B501EB4102D30000F1100208
:103DC000D25842F0010301EB4102D40000F110028D
:103DD000135110BD30B5134601EB4104E50000F16D
:103DE0001004625922F0606242EA436201EB41042E
:103DF000E50000F11004625130BD10B501EB410245
:103E0000D30000F11002D25822F0010301EB41026D
:103E1000D40000F110021351002301EB4102D40041
:103E200000F11002135101EB4102D40000F1140221
:103E3000135101EB4102D40000F11802135101EBC0
:103E40004102D40000F11C02135101EB4102D400E5
:103E500000F120021351212301EB4102D40000F1B3
:103E60002402135104290CDA01EB41025300C1F37F
:103E7000400203EB82033D229A4083681A4382602A
:103E80000DE00A1FD1B201EB41025300C1F3400221
:103E900003EB82033D229A40C3681A43C26010BDFF
:103EA00010B504290CDA01EB41035C00C1F34003B7
:103EB00004EB830302FA03F38468234383600DE079
:103EC0000B1FD9B201EB41035C00C1F3400304EBCB
:103ED000830302FA03F3C4682343C36010BD30B503
:103EE000802A0DD001EB4103DC0000F110031B59C7
:103EF000134301EB4104E50000F1100463510CE0B1
:103F000001EB4103DC0000F124031B59134301EBD7
:103F10004104E50000F12404635130BD10B50429CB
:103F20000CDA01EB41035C00C1F3400304EB8303B3
:103F300002FA03F38468234383600DE00B1FD9B2B8
:103F400001EB41035C00C1F3400304EB830302FA7D
:103F500003F3C4682343C36010BDF0B503460025D6
:103F600000260C46042979DA082A34D004DC012A18
:103F700007D0042A70D119E0102A41D0202A6BD131
:103F800053E001EB41004700C1F3400007EB80071D
:103F900002FA07F01F6800EA070601EB4100C700BC
:103FA00003F12400C05900F0800556E001EB410008
:103FB0004700C1F3400007EB800702FA07F01F68D3
:103FC00000EA070601EB4100C70003F11000C059E9
:103FD00000F0020541E001EB41004700C1F3400061
:103FE00007EB800702FA07F01F6800EA070601EBFB
:103FF0004100C70003F11000C05900F004052CE097
:1040000001EB41004700C1F3400007EB800702FAD3
:1040100007F01F6800EA070601EB4100C70003F143
:104020001000C05900F0080517E001EB41004700FF
:10403000C1F3400007EB800702FA07F01F6800EAAF
:10404000070601EB4100C70003F11000C05900F062
:10405000100502E002E0FFE700BF7AE0201FC4B2D3
:10406000082A34D004DC012A07D0042A6FD119E0D1
:10407000102A41D0202A6AD153E004EB44004700C3
:10408000C4F3400007EB800702FA07F05F6800EA1C
:10409000070601EB4100C70003F12400C05900F0FE
:1040A000800555E004EB44004700C4F3400007EBF3
:1040B000800702FA07F05F6800EA070601EB41009B
:1040C000C70003F11000C05900F0020540E004EB06
:1040D00044004700C4F3400007EB800702FA07F0F2
:1040E0005F6800EA070601EB4100C70003F110001A
:1040F000C05900F004052BE004EB44004700C4F372
:10410000400007EB800702FA07F05F6800EA070645
:1041100001EB4100C70003F11000C05900F0080591
:1041200016E004EB44004700C4F3400007EB8007AF
:1041300002FA07F05F6800EA070601EB4100C700DA
:1041400003F11000C05900F0100501E0FFE700BFC7
:1041500000BF16B10DB10120F0BD0020FCE700004A
:1041600070B501EB4104E50000F12404645924F02A
:10417000040501EB4104E60000F12404A55101EB24
:104180004104E60000F118041568A55101EB410453
:10419000E60000F11C049568A55101EB4104E6001E
:1041A00000F11404D569A55101EB4104E50000F1CB
:1041B000100463593F4C2340146944EA8404156A8F
:1041C0002C4395692C43234301EB4104E50000F1A6
:1041D00010046351546874B901EB4104E50000F127
:1041E0001004645944F4007501EB4104E60000F149
:1041F0001004A5511FE05468012C0ED101EB4104BD
:10420000E50000F11004645924F4007501EB410449
:10421000E60000F11004A5510DE001EB4104E500BA
:1042200000F11004645944F4004501EB4104E60038
:1042300000F11004A551D46874B901EB4104E50004
:1042400000F11004645944F4806501EB4104E60078
:1042500000F11004A5510DE001EB4104E50000F16F
:104260001004645924F4806501EB4104E60000F178
:104270001004A551546974B901EB4104E50000F143
:104280001004645944F4807501EB4104E60000F128
:104290001004A5510DE001EB4104E50000F110040C
:1042A000645924F4807501EB4104E60000F1100428
:1042B000A55170BD3F87FCFF2DE9F04104460E4635
:1042C00000BF00BF354609F028FA0746A06800681D
:1042D0002860A0680560384609F045FABDE8F0811D
:1042E00070B5044609F019FA0646A06805684DB194
:1042F0002868A168086000BF00BF304609F033FAA3
:10430000284670BD304609F02EFA0020F9E770B556
:1043100006460D464FF47A7005FB00F411E0304676
:1043200002F050FC18B102F083FC012070BD02F0D5
:104330007FFC3220FFF716FD322C01D9323C00E021
:104340000024002CEBD10020F0E700002DE9FC4117
:1043500006460D4600240027002001900F20009003
:104360002A48808900F0200018B925242046BDE89D
:10437000FC8127480068C0B2801C2649B1FBF0F0E0
:104380000190002008F002FE00F0007010B10E2431
:104390002046ECE7022223213046FDF782FC232051
:1043A000FCF774FE04460CB12046E0E7022224210B
:1043B0002846FDF776FC2420FCF768FE04460CB185
:1043C0002046D4E7022226210120FDF76AFC2620A0
:1043D000FCF75CFE04460CB12046C8E76846FDF7D2
:1043E0000DFF04464FF0FF3703E06846FDF706FF78
:1043F000044647B13CB99DF800000728F5D09DF868
:1044000000000628F1D02046B1E70000542F032019
:10441000042C014080618C002DE9F041FF27052428
:1044200004E0FDF7B1F90746601EC4B20FB1002CDD
:10443000F7D114B90020BDE8F08100F04BF8054633
:10444000EE0A2A46314602A0FEF768FC0120F2E798
:10445000454D4D432063617061636974793A20254D
:1044600075204D422028257520736563746F727323
:10447000290D0A002DE9F04180460E461546032419
:10448000292725B300BF00BF07E07019411E304641
:10449000FFF75CFF0746601EC4B20FB1002CF4D1D9
:1044A00014B90020BDE8F0812927032409E02B4638
:1044B0004FF4007231464046FDF7FAFC0746601E95
:1044C000C4B20FB1002CF2D10CB90020EAE70120F0
:1044D000E8E7000000200349897B012901D1014957
:1044E00008687047542F03202DE9F04106460F4617
:1044F000144603254FF02908ACB100BF00BF09E006
:1045000023464FF4007239463046FDF72BFB8046B8
:10451000681EC5B2B8F1000F01D0002DF0D115B959
:104520000020BDE8F0810120FBE770B504460D4690
:10453000164643F2042108594FF0FF310EF002FDF8
:10454000204603F01EFB012809D143F2042108593B
:1045500000231A4619460EF08BFB002070BD6278CE
:10456000A11C01EBC21032462946FBF7D1FE607850
:10457000401C642190FBF1F201FB1200607043F2D9
:104580000421085900231A4619460EF071FB012038
:10459000E4E700000020134908681349084000BF01
:1045A0001049086000210F4A51609160D1601146A6
:1045B00088694FF64171084040F0800011468861DB
:1045C0000021D161094988690949084040F0087013
:1045D0000649886108680749084007480349086098
:1045E00070470000008002400F8130FD00900240C3
:1045F000233FDEF87D0000F80060C10210B540F2F4
:10460000194008F06FF940F2194008F059F900F02C
:1046100041FC10BD08B500210091009002E0009916
:10462000491E009100990029F9D108BD02464FF0BA
:10463000FF30062927D2DFE801F022200B03071EF6
:104640009388C3F30C001FE05368C3F30C401BE0D6
:104650001368C3F30D4004280BD9001F0B4B1B68D4
:1046600003F0007333B1137803F0200313B1001D7E
:1046700000E0002008E0906806E0906804E013780D
:10468000C3F3C30000E000BF00BF704700800240DA
:104690002DE9F043044600210025002600278C4622
:1046A000B4F5E00F0FD12348234B052540F2F45613
:1046B0004FF48017DFF88480C8F81000DFF880809E
:1046C000C8F800000FE01F481F4B052540F2F456C4
:1046D000EF0744F2F45CDFF86480C8F80C00DFF800
:1046E0006C80C8F800004FF00008DFF86490C9F84B
:1046F0000080DFF86090C9F80080002115E000EB31
:1047000001121760C2F804C001FB0638C2F8088025
:10471000A5F10108884506D900EB011808F1100839
:10472000C2F80C8000E0D060491CA942E7D3BDE884
:10473000F083000040F30220541103200090024057
:1047400034000020F0F2022090F302203800002014
:10475000400000203C00002000B500F067FF00F0A2
:10476000B9FD00BD30B503460C4600210022384893
:104770000068006800F0004008B1002030BD002B48
:1047800034D033480068008800F4004060BB3048F3
:104790000068008800F4807030B32D4800680088FD
:1047A00000F4007000B32A4800680068C0F30D42AE
:1047B000121F2848006800F0007030B124480068DB
:1047C000007800F0200000B1121DA24201D90020A3
:1047D000D4E7002105E01E4800688068405C58541A
:1047E000491C9142F7D301E00020C7E74FF0004099
:1047F000174D2D6828601848406900F0800020B1EE
:104800008020154D68610020A860114800688088EC
:1048100000F4804028B10E480068C0680C4D286044
:1048200014E00B480068808800F4004020B10A487A
:10483000C068074D286009E007480068C0F3840598
:104840000348006810302844014D2860012095E796
:1048500038000020008002400090024070B50346FE
:1048600000222F480068006800F0004008B10020D6
:1048700070BD40F2F450814201D90020F8E74BB1FD
:10488000002205E0985C264E3668B668B054521C8B
:104890008A42F7D3224800684160214800680068D6
:1048A00040F040501E4E366830601D480068006879
:1048B00040F000401A4E366830601A48406900F0F7
:1048C00004051848406900F0200405B92CB145EAF8
:1048D0000400144E70610020706011480068006888
:1048E00000F4801028B10E480068C0680C4E30609B
:1048F00014E00B480068006800F4001020B109487B
:104900000069074E306009E006480068C0F384067D
:104910000348006810303044014E30600120A7E7A2
:10492000340000200090024010B54FF4406007F0C2
:10493000B5FF40F6014007F0B1FF40F6024007F036
:10494000ADFF40F6044007F0A9FF41F20E1007F05A
:10495000A5FF4FF4000009F099F80223012219463F
:10496000574801F07DFF022303220021544801F043
:104970009EFF042300220221514801F071FF04230D
:10498000032200214E4801F092FF802300220221E1
:104990004B4801F065FF802303220021484801F0C5
:1049A00086FF02220B21464801F018FF04220B214A
:1049B000434801F013FF80220B21414801F00EFF14
:1049C0004FF40063002202213E4801F049FF4FF4FA
:1049D0000063032200213B4801F069FF4FF480533C
:1049E00000220221374801F03BFF4FF4805303229D
:1049F0000021344801F05BFF4FF4005300220221F4
:104A0000304801F02DFF4FF40053032200212D48C0
:104A100001F04DFF4FF400620B212A4801F0DEFE49
:104A20004FF480520B21274801F0D8FE4FF400527A
:104A30000B21244801F0D2FE02230022194622480D
:104A400001F00EFF0223032200211F4801F02FFF77
:104A50001023002202211C4801F002FF1023032230
:104A60000021194801F023FF2023002202211648CB
:104A700001F0F6FE202303220021134801F017FF66
:104A800002220B21104801F0A9FE10220B210E4832
:104A900001F0A4FE20220B210B4801F09FFE102301
:104AA00001221146064801F0DBFE102303220021FB
:104AB000034801F0FCFE1021014801F0C0FE10BDCA
:104AC0000000024000040240000802402DE9F74FB8
:104AD00082B081468A460024002500260027A04691
:104AE000002001908346009000F034FB50B96FF035
:104AF0007F40FFF78FFD00F02DFB18B9009805B03F
:104B0000BDE8F08FFFF746FD4F46012F6DD100BF86
:104B100001AB01220021084600F088FBBDF804002B
:104B200000F00400019008F10108BDF8040010B97C
:104B3000BD488045ECD3BC48804501D10098DEE7F4
:104B40004FF000084FF48050019001AB0022114655
:104B5000022000F06BFB8346BBF1000F01D10098EF
:104B6000CDE700BF01AB01220021084600F05EFB4B
:104B7000BDF8040000F02000019008F10108BDF824
:104B8000040010B9A8488045ECD3A748804501D15E
:104B90000098B4E74FF0000801AB1122002108464D
:104BA00000F044FBBDF80410A0A0FEF7B7F8BDF874
:104BB000040000F4005010B14FF4006700E000273B
:104BC000BDF8040044F21001084028B147F48047C2
:104BD0009BA0FEF7A3F803E000BF9FA0FEF79EF89E
:104BE0006FF07F40FFF716FD1AE007F40060C00881
:104BF000019007F48040BDF8041041EA5000019094
:104C000001AB00221146022000F010FB8346BBF1ED
:104C1000000F01D1009872E76FF07F40FFF7FAFCB8
:104C20009348046824F4B0443C4304600AF4806070
:104C300070B18F48006840F480608D4908608D48ED
:104C4000846924F080640AF08060044389488461A8
:104C50008748406804990843854948608648007839
:104C600000F00100A8B184484568084604682E4653
:104C700082480440C04306403443084604607D48EF
:104C800084692E4624F0C00406F4407644EA960473
:104C900084617948007800F0020040B17648866867
:104CA000744804687648044034437248046072488B
:104CB000007800F0040040B16F48C6686D48046891
:104CC0007048044034436B4804606B48007800F03F
:104CD000080048B168480669664804684CF202005A
:104CE00084433443634804606348007800F0100054
:104CF00040B1614846695F48846963480440344371
:104D00005C4884615C48007800F0200098B15A4803
:104D10008569584884692E465C480440C043064073
:104D200034435448846104682E4624F0800406F01D
:104D30008006344304605048007800F0400038B1E9
:104D40004D48C5694A48C4696FF310042C43C461D7
:104D50004948007800F08000C0B14748056A4448DF
:104D600084692E464FF641700440864334434048E0
:104D700084614048803004682E4624F0770406F4AD
:104D8000EE4644EA16243B48C0F880403A48008882
:104D900000F4807018B13848406A35498860364858
:104DA000008800F4007018B13348806A3049C86048
:104DB0003148008800F4806048B12F48C56A2C480B
:104DC000446840F2DE7084432C43294844602A48FA
:104DD000008800F4006040B12748056B244804684F
:104DE0002B4804402C43224804602348008800F4E8
:104DF000805038B12048456B1D48046824F44004B5
:104E00002C4304601C48008800F4005038B11A4854
:104E1000856B1748046824F460242C430460012047
:104E2000009000986BE60000FFFF0F007068795F4C
:104E300076616C7565206973203A25780D0A00004B
:104E4000454E45545F53504545444D4F44455F31B1
:104E500030304D0D0A000000454E45545F5350451B
:104E600045444D4F44455F31304D0D0A0000000070
:104E70000080024000900240182F03207FFFFFFDBA
:104E8000FFFFFEF8FFC001FFE73FDEFDFBFFFFFE77
:104E90008FDDFEFF00200849086048608860C86018
:104EA000086148618861C861086248628862C862B6
:104EB0000863486388637047182F032041F21C0180
:104EC000B1EB901F0DD10E4A02EB9011096800F072
:104ED0001F0301229A401143094B03EB901211600A
:104EE0000CE0074A02EB9011096800F01F03012251
:104EF0009A409143024B03EB9012116070470000FF
:104F00000080024000F01F0201219140024B03EBA0
:104F10009012116070470000008002400146074A6D
:104F200002EB9110006801F01F0301229A4010402B
:104F300008B1012070470020FCE70000008002401B
:104F40000A794B7942EA0322084B03441A64CA786F
:104F500012068B7842EA03424B7842EA03220B782E
:104F60001A43024B03445A64704700000080024019
:104F700010B540F6194007F091FC40F61A4007F0D2
:104F80008DFC40F61B4007F089FCFFF737FB1F48FC
:104F9000FEF7E8FE00F0B0F918B11DA0FDF7BEFE67
:104FA00007E005E022A0FDF7B9FE2948FEF7DAFE8A
:104FB000F8E72748FEF7D6FE2648FDF7AFFE26A005
:104FC000FDF7ACFE3348FEF7CDFE33A0FDF7A6FE9D
:104FD00000224FF480614FF49040FFF777FD3B498A
:104FE000086008460068012801D139A000E039A016
:104FF00001463648026839A0FDF790FE3348006844
:105000004648016846A0FDF789FE10BD40420F00EA
:10501000656E65745F736F6674776172655F7265E4
:10502000736574206973204F4B210D0A0000000046
:10503000656E65745F736F6674776172655F7265C4
:1050400073657420697320455252210D0A000000D7
:1050500020A10700EC3B01082020202020205761E0
:10506000697420666F722074686520504859206307
:1050700068697020746F2066756C6C792073746138
:1050800062696C697A6520283230306D73292E2E62
:105090002E0D0A00400D03002020202020204D6FFF
:1050A00064653A203130304D2066756C6C20647533
:1050B000706C65782C20686172647761726520631A
:1050C0006865636B73756D0D0A000000E4000020D5
:1050D0004F4B00004641494C00000000202020209A
:1050E00020205B332E335D204D414320696E69746F
:1050F00069616C697A6174696F6E2073746174752B
:10510000733A202573202873746174757320766157
:105110006C75653A202564290D0A00000080024064
:105120002020202020205B332E335D204D41432062
:10513000636F6E66696775726174696F6E20726500
:105140006769737465723A203078253034580D0AD7
:1051500000000000F8B500262C48056925F01C0564
:10516000012007F009FB04462948844205D3294859
:10517000844202D245F0080526E02648844205D341
:105180002548844202D245F00C051DE022488442A5
:1051900003D32248844200D216E02048844205D33B
:1051A0001F48844202D245F004050DE01C488442A9
:1051B00002D31C48844202D31A48844202D145F0EB
:1051C000100501E03046F8BD104805614FF400407D
:1051D00000906B4600221146022000F027F808B923
:1051E0003046F0E71048FFF715FA6B4600221146EB
:1051F000104600F01BF808B93046E4E7BDF800009F
:1052000000F4004000B901263046DCE7008002408F
:10521000002D3101C00E16020087930300E1F50551
:1052200080D1F008001C4E0EFFFF04002DE9F04174
:1052300004460D4600270020DFF884C0DCF810107B
:105240004FF6C37C21EA0C014FF4F86C0CEA821C87
:105250004CEA040C4FF4784808EAC5284CEA080CDC
:105260004CF0010C4CEA0101022C05D1B3F800C04E
:10527000DFF84C80C8F814C0DFF844C0CCF8101038
:1052800000BFDFF83CC0DCF810C00CF001067F1C4A
:105290001EB1DFF830C06745F3D1DFF824C0DCF879
:1052A00010C00CF0010CBCF1000F00D101202CB992
:1052B000DFF80CC0DCF814C0A3F800C0BDE8F08132
:1052C00000800240FFFF0400416821F0004141607E
:1052D000704700000648006840F004000449086078
:1052E0000448806940F0020002498861704700006C
:1052F000008002400090024010B5002100200B4BBE
:105300001B6843F00103094C236000BF074B1B6877
:1053100003F00102491C12B1054B9942F6D1034B2F
:105320001B6803F0010303B9012010BD0090024087
:10533000FFFF040070B534A0FDF7F0FCFFF7F4FAAE
:1053400040A0FDF7EBFC06F061FD49A0FDF7E6FC8F
:10535000FFF70EFE4FA0FDF7E1FC5848006800285B
:1053600036D157A0FDF7DAFC65A0FDF7D7FC002485
:10537000032526E0641C2A4621466BA0FDF7CEFCDF
:105380007548FEF7EFFC75A0FDF7C8FC06F03EFD82
:105390007948FEF7E7FC00224FF480614FF490401B
:1053A000FFF794FB4549086008460068012803D1CF
:1053B00072A0FDF7B3FC09E0404801687EA0FDF74C
:1053C000ADFC3E48006808B9AC42D3DB00BF00BF6B
:1053D0008248FFF773FD81480A38FFF76FFD80A010
:1053E000FDF79CFC35480068012801D186A000E04B
:1053F00086A00146314802688648FDF78FFC864842
:10540000FDF78CFC70BD00000D0A3D3D3D3D3D3D6E
:105410002045746865726E65742068617264776196
:10542000726520696E697469616C697A6174696F0B
:105430006E20626567696E73203D3D3D3D3D3D0DCB
:105440000A0000005B312F355D204750494F207026
:10545000696E20636F6E66696775726174696F6EDD
:1054600020636F6D706C657465642E0D0A0000001A
:105470005B322F355D205048592063686970207277
:105480006573657420636F6D706C657465642E0D53
:105490000A0000005B332F355D204D41432F444D02
:1054A0004120636F6E66696775726174696F6E2003
:1054B000636F6D706C657465640D0A00E400002014
:1054C0005B6572726F725D2045746865726E65749B
:1054D00020696E697469616C697A6174696F6E20A4
:1054E0006661696C656420656E65745F696E697478
:1054F0005F737461747573203D20300D0A000000E5
:10550000417474656D707420746F20726574727963
:1055100020696E697469616C697A6174696F6E2E55
:105520002E2E0D0A000000005B7265747279202532
:10553000642F25645D205761697420666F72203284
:10554000207365636F6E647320616E64207265748E
:1055500072792E2E2E0D0A0080841E00526573650E
:105560007420504859206368697020616761696ED2
:105570002E2E2E0D0A00000040420F005B72657453
:105580007279207375636365737366756C5D20450E
:10559000746865726E657420696E697469616C699E
:1055A0007A6174696F6E2073756363657373667572
:1055B0006C210D0A000000005B7265747279206630
:1055C00061696C65645D20537461747573207661E4
:1055D0006C75653A2025640D0A0000001007040070
:1055E0005B342F355D20496E74657272757074205E
:1055F000656E61626C656420636F6D706C65746963
:105600006F6E0D0A000000004F4B00004641494CF0
:1056100000000000A43B01085C3B0108026822F482
:105620004002026002680A430260704700B5074802
:10563000006840F008000549086000F00BF80448D5
:10564000806940F400500249886100BD008002403A
:105650000090024010B500220020094B9B6943F4E2
:105660008013074CA36100BF054B9B6903F48011B5
:10567000521C11B1034B9A42F6D301B9012010BD5F
:1056800000900240FFFF04002DE9F05F07460E4640
:105690003C4600BF00BF08F040F883460020606031
:1056A0002672207F40F0010020776578002060702E
:1056B000584608F058F8606A20B1002204212046BC
:1056C000636A9847606A20B1002211462046636AE7
:1056D0009847606A20B1002202212046636A9847F9
:1056E000304604F011F9824604F1100030B120690F
:1056F00020B1514604F1100008F099F804F11400AB
:1057000030B1606920B1514604F1140008F08FF8FF
:10571000012D03D0042D01D0032D24D1207FC0F30F
:10572000800900BF00BF207F00F0FB00207700BF92
:1057300000BFB9F1000F15D100BF00BF042D03D188
:105740000020216A087101E0206A0671206A006861
:1057500000F10C0800BF00BF00202062404608F0A6
:10576000D7F800BF01E000BF00BFBDE8F09F000018
:105770000146002902DC4842112801DB0520704760
:1057800002484A4250F82200F9E700006838010850
:105790002DE9FE4F0546884616464FF00A09CA46CF
:1057A0000A270024BB46002002900190009000BF11
:1057B00064E004EB4400534A02EBC000017D0A2F71
:1057C00002D109B9274657E0002955D000BF00BFD4
:1057D000A5B104EB44024B4B03EBC20228685268AC
:1057E00090420BD13EB104EB44001A4602EBC000DC
:1057F0008068B04202D12046BDE8FE8F012928D141
:1058000004EB44003F4A52F8300080B104EB4400FE
:1058100002EBC000428A029882422DDBA34604EBD1
:105820004400384A02EBC000408A029024E004EBB6
:105830004400344A02EBC000428A019882421BDBDA
:10584000A14604EB44002F4A02EBC000408A0190BD
:1058500012E0022910DB04EB44002A4A02EBC000EC
:10586000428A0098824207DBA24604EB4400254AA4
:1058700002EBC000408A0090601C04B20A2C98DB46
:1058800008F0020020B90A2F05D108F0010010B974
:105890004FF0FF30B0E70A2F01DA3C4617E0BAF1CB
:1058A0000A0F02DA544600BF0CE0B9F10A0F01DA20
:1058B0004C4607E0BBF10A0F01DA5C4602E04FF00C
:1058C000FF3099E700BF00BF204600F01DF800BF81
:1058D00000BF00BF00BF35B104EB4401094A02EB31
:1058E000C10128684860002004EB4401054A02EB2E
:1058F000C101488204EB4400114601EBC000866000
:10590000204679E7EC2F052010B5044604EB44004F
:105910000C4951F8300060B104EB4401094A52F8D7
:10592000310006F02DF9002004EB4401054A42F84D
:105930003100002004EB4401024A02EBC10108756A
:1059400010BD0000EC2F05202DE9F04186B0074680
:105950000D4600BF15B906B0BDE8F08100BF7C68F8
:105960002088B0F5807F08D12079062805D160799C
:10597000042802D16088082803D0384606F000F9D0
:10598000E9E7D4F80E000590A0690490686810B9A2
:105990000026B0460FE004986968884201D10120D2
:1059A00000E00020064605986968884201D1012080
:1059B00000E0002080460EB1012000E002200346F6
:1059C00004F1080205A9284600F0D6FAE088B0F5EF
:1059D000807F03D0B0F5007F18D116E09EB1B8F1FA
:1059E000000F10D1022205AB04F10800291DCDE9FA
:1059F0000232CDE9001005F1220302461E3128468D
:105A000000F0DCF900E000BF01E000E000BF00BFF3
:105A1000384606F0B5F800BF9DE700002DE9FE43CB
:105A2000044689461546A84600BF00BF00BF00BF18
:105A300000BF00BF2146286801F096FA08B1494F1F
:105A400085E0287800F0F000E02815D101208DF8DD
:105A5000040000208DF805005E208DF806006878AF
:105A600000F07F008DF80700A8788DF80800E8782E
:105A70008DF8090001AF69E02868A1680840D4E901
:105A80000112114088420ED0288880B24FF6A961D9
:105A9000884208D0E06810B104F10C0803E06FF010
:105AA0000300BDE8FE833048007800EB40002F493A
:105AB00001EBC000007D02281BDB2B48007800EBC7
:105AC000400001EBC0008068A04212D1264909784D
:105AD00001EB4101254A02EBC101D8F800004968F9
